:020000040000FA
:100000000C9435000C945D000C945D000C945D0024
:100010000C945D000C945D000C945D000C945D00EC
:100020000C945D000C945D000C945D000C945D00DC
:100030000C945D000C945D000C945D000C945D00CC
:100040000C94DE010C945D000C944E020C9428027A
:100050000C945D000C945D000C945D000C945D00AC
:100060000C945D000C945D00E60311241FBECFEFDD
:10007000D8E0DEBFCDBF11E0A0E0B1E0E6EEFAE0EF
:1000800002C005900D92A831B107D9F721E0A8E18F
:10009000B1E001C01D92AE3DB207E1F710E0C5E34B
:1000A000D0E004C02197FE010E946B05C433D10744
:1000B000C9F70E9480020C9471050C940000AF9265
:1000C000BF92CF92DF92EF92FF920F931F93CF9345
:1000D000DF936C017B018B01040F151FEB015E01A7
:1000E000AE18BF08C017D10759F06991D601ED913C
:1000F000FC910190F081E02DC6010995892B79F7DB
:10010000C501DF91CF911F910F91FF90EF90DF908C
:10011000CF90BF90AF900895FC01538D448D252F53
:1001200030E0842F90E0821B930B541710F0CF9691
:10013000089501970895FC01918D828D981761F0C3
:10014000A28DAE0FBF2FB11D5D968C91928D9F5FDA
:100150009F73928F90E008958FEF9FEF0895FC01B9
:10016000918D828D981731F0828DE80FF11D858D6C
:1001700090E008958FEF9FEF0895FC01918D228DFF
:10018000892F90E0805C9F4F821B91098F73992784
:10019000089581E491E00E94BD0021E0892B09F4DB
:1001A00020E0822F089580E090E0892B29F00E94C2
:1001B000C90081110C9400000895FC01A48DA80FC2
:1001C000B92FB11DA35ABF4F2C91848D90E0019699
:1001D0008F739927848FA689B7892C93A089B189B9
:1001E0008C91837080648C93938D848D981306C05A
:1001F0000288F389E02D80818F7D80830895EF92BE
:10020000FF920F931F93CF93DF93EC0181E0888FD0
:100210009B8D8C8D98131AC0E889F989808185FFA0
:1002200015C09FB7F894EE89FF896083E889F98942
:1002300080818370806480839FBF81E090E0DF9144
:10024000CF911F910F91FF90EF900895F62E0B8D97
:1002500010E00F5F1F4F0F731127E02E8C8D8E1152
:100260000CC00FB607FCFACFE889F989808185FFB9
:10027000F5CFCE010E94DD00F1CFEB8DEC0FFD2F0D
:10028000F11DE35AFF4FF0829FB7F8940B8FEA8974
:10029000FB8980818062CFCFCF93DF93EC01888D83
:1002A0008823B9F0AA89BB89E889F9898C9185FDF1
:1002B00003C0808186FD0DC00FB607FCF7CF8C917F
:1002C00085FFF2CF808185FFEDCFCE010E94DD005A
:1002D000E9CFDF91CF910895FC0101900020E9F76B
:1002E0003197AF01481B590BBC0181E491E00C949C
:1002F0005F008F929F92AF92BF920F931F93CF9305
:10030000DF93CDB7DEB7A1970FB6F894DEBF0FBE6F
:10031000CDBF19A2423008F44AE08E010F5D1F4F95
:10032000842E912CB12CA12CA50194010E94490589
:10033000E62FB901CA01EA30F4F4E05DD801EE938A
:100340008D01232B242B252B79F790E080E010974B
:1003500019F0CD010E946C01A1960FB6F894DEBF92
:100360000FBECDBFDF91CF911F910F91BF90AF9086
:100370009F908F900895E95CE1CFCF92DF92EF924A
:10038000FF92CF93DF936B017C016DE281E491E0FA
:100390000E94FF00EC0166277727CB016C197D09CD
:1003A0008E099F094AE00E9479018C0F9D1FDF9101
:1003B000CF91FF90EF90DF90CF9008951F920F9212
:1003C0000FB60F9211242F933F938F939F93AF9368
:1003D000BF9380913D0190913E01A0913F01B0916A
:1003E000400130913C0123E0230F2D3758F5019651
:1003F000A11DB11D20933C0180933D0190933E01CE
:10040000A0933F01B0934001809138019091390150
:10041000A0913A01B0913B010196A11DB11D8093BD
:10042000380190933901A0933A01B0933B01BF91F9
:10043000AF919F918F913F912F910F900FBE0F9091
:100440001F90189526E8230F0296A11DB11DD2CF4B
:100450001F920F920FB60F9211242F933F934F9339
:100460005F936F937F938F939F93AF93BF93EF931C
:10047000FF9381E491E00E94DD00FF91EF91BF9135
:10048000AF919F918F917F916F915F914F913F912C
:100490002F910F900FBE0F901F9018951F920F92E3
:1004A0000FB60F9211242F938F939F93EF93FF9387
:1004B000E0915101F09152018081E0915701F0915A
:1004C000580182FD1BC0908180915A018F5F8F730C
:1004D00020915B01821741F0E0915A01F0E0EF5B5F
:1004E000FE4F958F80935A01FF91EF919F918F91CD
:1004F0002F910F900FBE0F901F9018958081F4CF11
:10050000789484B5826084BD84B5816084BD85B5EE
:10051000826085BD85B5816085BD80916E008160FA
:1005200080936E00109281008091810082608093A0
:1005300081008091810081608093810080918000A2
:100540008160809380008091B10084608093B100CD
:100550008091B00081608093B00080917A008460C7
:1005600080937A0080917A00826080937A008091F3
:100570007A00816080937A0080917A00806880930D
:100580007A001092C100E0915101F091520182E095
:100590008083E0914D01F0914E011082E0914F0176
:1005A000F09150018FEC808310925901E091550138
:1005B000F091560186E08083E0915301F09154015F
:1005C000808180618083E0915301F09154018081AA
:1005D00088608083E0915301F091540180818068AC
:1005E0008083E0915301F091540180818F7D80835D
:1005F00030E4632E41E3C42E41E0D42E50E0E52EDA
:1006000050E0F52E772473948FB7F89480903D01D5
:1006100090903E01A0903F01B09040018FBF60924A
:100620007C0080917A00806480937A0080917A00C7
:1006300086FDFCCF009178001091790003331105FD
:100640000CF4B5C080913701811136C0809133011F
:1006500090913401A0913501B0913601B501A4010A
:10066000481B590B6A0B7B0B413921E0520761058E
:10067000710500F18091310190913201FC01EE0F82
:10068000FF1FEE0FFF1FE35EFE4F40835183628327
:1006900073838092330190923401A0923501B0921D
:1006A00036010196853091050CF07AC090933201A5
:1006B0008093310170923701809118019091190156
:1006C000A0911A01B0911B01A5019401281B390BBF
:1006D0004A0B5B0BDA01C901883E9340A105B105C5
:1006E00008F452C080911C01CFEFDFEF882319F18D
:1006F000EDE1F1E060E070E0CB01219131914191B9
:100700005191620F731F841F951FCE16DF06A9F744
:100710000E94BB0420E030E040EA50E40E94130451
:100720009B01AC0160E070E68AE697E40E94130446
:100730000E948504EB014AE0C501B4010E947901E1
:1007400082E191E00E946C01B801110F880B990BB6
:1007500097FF34C00E94BD0182E191E00E946C01CC
:10076000BE01DD0F880B990B97FF2CC00E94BD01C5
:1007700084E191E00E946C0180921801909219012D
:10078000A0921A01B0921B01E114F10409F43CCFCC
:100790000E94C900882309F437CF0E94000034CF9B
:1007A000109232011092310170921C0183CF0233FA
:1007B000110509F481CF109237017ECF4AE00E94E3
:1007C0007901CACF4AE00E947901D2CFE1E4F1E099
:1007D0001382128288EE93E0A0E0B0E084839583D8
:1007E000A683B78384E091E09183808385EC90E0D9
:1007F0009587848784EC90E09787868780EC90E0EB
:10080000918B808B81EC90E0938B828B82EC90E0DB
:10081000958B848B86EC90E0978B868B118E128E55
:10082000138E148E08950E9427040C940F050E94C5
:10083000080558F00E94010540F029F45F3F29F0B7
:100840000C94F80451110C9443050C94FE040E947E
:10085000200568F39923B1F3552391F3951B550BAC
:10086000BB27AA2762177307840738F09F5F5F4F83
:10087000220F331F441FAA1FA9F335D00E2E3AF0C2
:10088000E0E832D091505040E695001CCAF72BD0DA
:10089000FE2F29D0660F771F881FBB1F261737072B
:1008A0004807AB07B0E809F0BB0B802DBF01FF275D
:1008B00093585F4F3AF09E3F510578F00C94F8043E
:1008C0000C9443055F3FE4F3983ED4F38695779507
:1008D0006795B795F7959F5FC9F7880F911D969516
:1008E000879597F90895E1E0660F771F881FBB1F72
:1008F000621773078407BA0720F0621B730B840B1F
:10090000BA0BEE1F88F7E09508950E948C04689456
:10091000B1110C94430508950E94280588F09F5753
:1009200098F0B92F9927B751B0F0E1F0660F771F13
:10093000881F991F1AF0BA95C9F714C0B13091F009
:100940000E944205B1E008950C944205672F782F6C
:100950008827B85F39F0B93FCCF3869577956795CE
:10096000B395D9F73EF490958095709561957F4F3A
:100970008F4F9F4F0895E89409C097FB3EF49095E0
:100980008095709561957F4F8F4F9F4F9923A9F068
:10099000F92F96E9BB279395F695879577956795F7
:1009A000B795F111F8CFFAF4BB0F11F460FF1BC03B
:1009B0006F5F7F4F8F4F9F4F16C0882311F096E9CE
:1009C00011C0772321F09EE8872F762F05C066237C
:1009D00071F096E8862F70E060E02AF09A95660F35
:1009E000771F881FDAF7880F9695879597F90895EE
:1009F00097F99F6780E870E060E008959FEF80ECD2
:100A0000089500240A941616170618060906089574
:100A100000240A9412161306140605060895092EDA
:100A20000394000C11F4882352F0BB0F40F4BF2B49
:100A300011F460FF04C06F5F7F4F8F4F9F4F089589
:100A400057FD9058440F551F59F05F3F71F047957F
:100A5000880F97FB991F61F09F3F79F08795089564
:100A6000121613061406551FF2CF4695F1DF08C083
:100A7000161617061806991FF1CF869571056105A0
:100A800008940895E894BB2766277727CB0197F948
:100A90000895A1E21A2EAA1BBB1BFD010DC0AA1FBF
:100AA000BB1FEE1FFF1FA217B307E407F50720F0D7
:100AB000A21BB30BE40BF50B661F771F881F991F52
:100AC0001A9469F760957095809590959B01AC019B
:100AD000BD01CF010895EE0FFF1F0590F491E02DA9
:100AE0000994F894FFCF00000000FF005F008C0025
:0E0AF0004C01BD009B00AF002C000D0A000061
:107E0000112484B714BE81FFF0D085E080938100F7
:107E100082E08093C00088E18093C10086E0809377
:107E2000C20080E18093C4008EE0C9D0259A86E02C
:107E300020E33CEF91E0309385002093840096BBD3
:107E4000B09BFECF1D9AA8958150A9F7CC24DD24C4
:107E500088248394B5E0AB2EA1E19A2EF3E0BF2EE7
:107E6000A2D0813461F49FD0082FAFD0023811F036
:107E7000013811F484E001C083E08DD089C08234E0
:107E800011F484E103C0853419F485E0A6D080C0E4
:107E9000853579F488D0E82EFF2485D0082F10E0AE
:107EA000102F00270E291F29000F111F8ED06801E7
:107EB0006FC0863521F484E090D080E0DECF843638
:107EC00009F040C070D06FD0082F6DD080E0C81688
:107ED00080E7D80618F4F601B7BEE895C0E0D1E017
:107EE00062D089930C17E1F7F0E0CF16F0E7DF06D8
:107EF00018F0F601B7BEE89568D007B600FCFDCFD4
:107F0000A601A0E0B1E02C9130E011968C91119780
:107F100090E0982F8827822B932B1296FA010C0160
:107F200087BEE89511244E5F5F4FF1E0A038BF0790
:107F300051F7F601A7BEE89507B600FCFDCF97BE46
:107F4000E89526C08437B1F42ED02DD0F82E2BD052
:107F50003CD0F601EF2C8F010F5F1F4F84911BD097
:107F6000EA94F801C1F70894C11CD11CFA94CF0C13
:107F7000D11C0EC0853739F428D08EE10CD085E9AC
:107F80000AD08FE07ACF813511F488E018D01DD067
:107F900080E101D065CF982F8091C00085FFFCCF94
:107FA0009093C60008958091C00087FFFCCF809118
:107FB000C00084FD01C0A8958091C6000895E0E648
:107FC000F0E098E1908380830895EDDF803219F02E
:107FD00088E0F5DFFFCF84E1DECF1F93182FE3DFCA
:107FE0001150E9F7F2DF1F91089580E0E8DFEE27F6
:047FF000FF270994CA
:027FFE00040479
:00000001FF
